{
  "contractName": "Civics",
  "abi": [
    {
      "constant": true,
      "inputs": [],
      "name": "totalCitizens",
      "outputs": [
        {
          "name": "",
          "type": "uint256"
        }
      ],
      "payable": false,
      "stateMutability": "view",
      "type": "function",
      "signature": "0xbd7b09e4"
    }
  ],
  "bytecode": "0x608060405260008055348015601357600080fd5b506099806100226000396000f3fe608060405260043610603e5763ffffffff7c0100000000000000000000000000000000000000000000000000000000600035041663bd7b09e481146043575b600080fd5b348015604e57600080fd5b5060556067565b60408051918252519081900360200190f35b6000548156fea165627a7a723058203c80ad1ac9e35b6e42df67717f7488acb8d9328977570f18e4bfd7331661d4960029",
  "source": "pragma solidity ^0.5.0;\n\ncontract Civics {\n\n    uint public totalCitizens=0;\n    \n}",
  "sourcePath": "/Users/saganac/eth-civics/contracts/Civics.sol",
  "compiler": {
    "name": "solc",
    "version": "0.5.0+commit.1d4f565a.Emscripten.clang"
  },
  "schemaVersion": "3.0.1",
  "updatedAt": "2025-08-19T19:40:03.848Z",
  "devdoc": {
    "methods": {}
  },
  "userdoc": {
    "methods": {}
  }
}