{
  "contractName": "Civics",
  "abi": [
    {
      "anonymous": false,
      "inputs": [
        {
          "indexed": true,
          "internalType": "uint256",
          "name": "issueId",
          "type": "uint256"
        }
      ],
      "name": "IssueDeleted",
      "type": "event"
    },
    {
      "anonymous": false,
      "inputs": [
        {
          "indexed": true,
          "internalType": "uint256",
          "name": "id",
          "type": "uint256"
        },
        {
          "indexed": false,
          "internalType": "string",
          "name": "category",
          "type": "string"
        }
      ],
      "name": "IssueReported",
      "type": "event"
    },
    {
      "anonymous": false,
      "inputs": [
        {
          "indexed": true,
          "internalType": "uint256",
          "name": "id",
          "type": "uint256"
        },
        {
          "indexed": false,
          "internalType": "string",
          "name": "title",
          "type": "string"
        }
      ],
      "name": "ProposalCreated",
      "type": "event"
    },
    {
      "anonymous": false,
      "inputs": [
        {
          "indexed": true,
          "internalType": "uint256",
          "name": "proposalId",
          "type": "uint256"
        }
      ],
      "name": "ProposalDeleted",
      "type": "event"
    },
    {
      "anonymous": false,
      "inputs": [
        {
          "indexed": true,
          "internalType": "uint256",
          "name": "id",
          "type": "uint256"
        }
      ],
      "name": "ProposalEscalated",
      "type": "event"
    },
    {
      "anonymous": false,
      "inputs": [
        {
          "indexed": true,
          "internalType": "uint256",
          "name": "proposalId",
          "type": "uint256"
        },
        {
          "indexed": false,
          "internalType": "bool",
          "name": "vote",
          "type": "bool"
        }
      ],
      "name": "VoteCast",
      "type": "event"
    },
    {
      "constant": true,
      "inputs": [],
      "name": "issueCount",
      "outputs": [
        {
          "internalType": "uint256",
          "name": "",
          "type": "uint256"
        }
      ],
      "payable": false,
      "stateMutability": "view",
      "type": "function"
    },
    {
      "constant": true,
      "inputs": [
        {
          "internalType": "uint256",
          "name": "",
          "type": "uint256"
        }
      ],
      "name": "issues",
      "outputs": [
        {
          "internalType": "uint256",
          "name": "id",
          "type": "uint256"
        },
        {
          "internalType": "string",
          "name": "category",
          "type": "string"
        },
        {
          "internalType": "string",
          "name": "description",
          "type": "string"
        },
        {
          "internalType": "string",
          "name": "location",
          "type": "string"
        },
        {
          "internalType": "uint256",
          "name": "timestamp",
          "type": "uint256"
        },
        {
          "internalType": "uint256",
          "name": "upvotes",
          "type": "uint256"
        }
      ],
      "payable": false,
      "stateMutability": "view",
      "type": "function"
    },
    {
      "constant": true,
      "inputs": [],
      "name": "proposalCount",
      "outputs": [
        {
          "internalType": "uint256",
          "name": "",
          "type": "uint256"
        }
      ],
      "payable": false,
      "stateMutability": "view",
      "type": "function"
    },
    {
      "constant": true,
      "inputs": [
        {
          "internalType": "uint256",
          "name": "",
          "type": "uint256"
        }
      ],
      "name": "proposals",
      "outputs": [
        {
          "internalType": "uint256",
          "name": "id",
          "type": "uint256"
        },
        {
          "internalType": "string",
          "name": "title",
          "type": "string"
        },
        {
          "internalType": "string",
          "name": "description",
          "type": "string"
        },
        {
          "internalType": "uint256",
          "name": "yesVotes",
          "type": "uint256"
        },
        {
          "internalType": "uint256",
          "name": "noVotes",
          "type": "uint256"
        },
        {
          "internalType": "uint256",
          "name": "deadline",
          "type": "uint256"
        },
        {
          "internalType": "bool",
          "name": "active",
          "type": "bool"
        },
        {
          "internalType": "address",
          "name": "creator",
          "type": "address"
        }
      ],
      "payable": false,
      "stateMutability": "view",
      "type": "function"
    },
    {
      "constant": true,
      "inputs": [
        {
          "internalType": "bytes32",
          "name": "",
          "type": "bytes32"
        }
      ],
      "name": "registeredCitizens",
      "outputs": [
        {
          "internalType": "bool",
          "name": "",
          "type": "bool"
        }
      ],
      "payable": false,
      "stateMutability": "view",
      "type": "function"
    },
    {
      "constant": false,
      "inputs": [
        {
          "internalType": "bytes32",
          "name": "citizenHash",
          "type": "bytes32"
        }
      ],
      "name": "registerCitizen",
      "outputs": [],
      "payable": false,
      "stateMutability": "nonpayable",
      "type": "function"
    },
    {
      "constant": false,
      "inputs": [
        {
          "internalType": "string",
          "name": "_title",
          "type": "string"
        },
        {
          "internalType": "string",
          "name": "_description",
          "type": "string"
        },
        {
          "internalType": "uint256",
          "name": "_duration",
          "type": "uint256"
        }
      ],
      "name": "createProposal",
      "outputs": [],
      "payable": false,
      "stateMutability": "nonpayable",
      "type": "function"
    },
    {
      "constant": false,
      "inputs": [
        {
          "internalType": "uint256",
          "name": "_proposalId",
          "type": "uint256"
        },
        {
          "internalType": "bool",
          "name": "_vote",
          "type": "bool"
        },
        {
          "internalType": "bytes32",
          "name": "_citizenHash",
          "type": "bytes32"
        }
      ],
      "name": "vote",
      "outputs": [],
      "payable": false,
      "stateMutability": "nonpayable",
      "type": "function"
    },
    {
      "constant": false,
      "inputs": [
        {
          "internalType": "string",
          "name": "_category",
          "type": "string"
        },
        {
          "internalType": "string",
          "name": "_description",
          "type": "string"
        },
        {
          "internalType": "string",
          "name": "_location",
          "type": "string"
        },
        {
          "internalType": "bytes32",
          "name": "_citizenHash",
          "type": "bytes32"
        }
      ],
      "name": "reportIssue",
      "outputs": [],
      "payable": false,
      "stateMutability": "nonpayable",
      "type": "function"
    },
    {
      "constant": false,
      "inputs": [
        {
          "internalType": "uint256",
          "name": "_issueId",
          "type": "uint256"
        },
        {
          "internalType": "bytes32",
          "name": "_citizenHash",
          "type": "bytes32"
        }
      ],
      "name": "upvoteIssue",
      "outputs": [],
      "payable": false,
      "stateMutability": "nonpayable",
      "type": "function"
    },
    {
      "constant": false,
      "inputs": [
        {
          "internalType": "uint256",
          "name": "_proposalId",
          "type": "uint256"
        }
      ],
      "name": "deleteProposal",
      "outputs": [],
      "payable": false,
      "stateMutability": "nonpayable",
      "type": "function"
    },
    {
      "constant": false,
      "inputs": [
        {
          "internalType": "uint256",
          "name": "_issueId",
          "type": "uint256"
        },
        {
          "internalType": "bytes32",
          "name": "_citizenHash",
          "type": "bytes32"
        }
      ],
      "name": "deleteIssue",
      "outputs": [],
      "payable": false,
      "stateMutability": "nonpayable",
      "type": "function"
    }
  ],
  "bytecode": "0x608060405234801561001057600080fd5b50611339806100206000396000f3fe608060405234801561001057600080fd5b50600436106100b45760003560e01c80638259d553116100715780638259d5531461058c57806398cf147a146105a9578063a3ec88aa146105c3578063a5df199a146105e0578063da35c66414610603578063e8eb32ef1461060b576100b4565b8063013cf08b146100b957806304e15de5146101f457806305dae4bc1461036a5780630ce0ebf41461047a578063147a9611146105385780634f5ff9f31461055b575b600080fd5b6100d6600480360360208110156100cf57600080fd5b5035610636565b60405180898152602001806020018060200188815260200187815260200186815260200185151515158152602001846001600160a01b03166001600160a01b0316815260200183810383528a818151815260200191508051906020019080838360005b83811015610151578181015183820152602001610139565b50505050905090810190601f16801561017e5780820380516001836020036101000a031916815260200191505b5083810382528951815289516020918201918b019080838360005b838110156101b1578181015183820152602001610199565b50505050905090810190601f1680156101de5780820380516001836020036101000a031916815260200191505b509a505050505050505050505060405180910390f35b6102116004803603602081101561020a57600080fd5b5035610798565b60405180878152602001806020018060200180602001868152602001858152602001848103845289818151815260200191508051906020019080838360005b83811015610268578181015183820152602001610250565b50505050905090810190601f1680156102955780820380516001836020036101000a031916815260200191505b5084810383528851815288516020918201918a019080838360005b838110156102c85781810151838201526020016102b0565b50505050905090810190601f1680156102f55780820380516001836020036101000a031916815260200191505b50848103825287518152875160209182019189019080838360005b83811015610328578181015183820152602001610310565b50505050905090810190601f1680156103555780820380516001836020036101000a031916815260200191505b50995050505050505050505060405180910390f35b6104786004803603608081101561038057600080fd5b810190602081018135600160201b81111561039a57600080fd5b8201836020820111156103ac57600080fd5b803590602001918460018302840111600160201b831117156103cd57600080fd5b919390929091602081019035600160201b8111156103ea57600080fd5b8201836020820111156103fc57600080fd5b803590602001918460018302840111600160201b8311171561041d57600080fd5b919390929091602081019035600160201b81111561043a57600080fd5b82018360208201111561044c57600080fd5b803590602001918460018302840111600160201b8311171561046d57600080fd5b91935091503561096c565b005b6104786004803603606081101561049057600080fd5b810190602081018135600160201b8111156104aa57600080fd5b8201836020820111156104bc57600080fd5b803590602001918460018302840111600160201b831117156104dd57600080fd5b919390929091602081019035600160201b8111156104fa57600080fd5b82018360208201111561050c57600080fd5b803590602001918460018302840111600160201b8311171561052d57600080fd5b919350915035610a8b565b6104786004803603604081101561054e57600080fd5b5080359060200135610b5a565b6105786004803603602081101561057157600080fd5b5035610ce3565b604080519115158252519081900360200190f35b610478600480360360208110156105a257600080fd5b5035610cf8565b6105b1610e59565b60408051918252519081900360200190f35b610478600480360360208110156105d957600080fd5b5035610e5f565b610478600480360360408110156105f657600080fd5b5080359060200135610e7a565b6105b1610f6e565b6104786004803603606081101561062157600080fd5b50803590602081013515159060400135610f74565b600060208181529181526040908190208054600180830180548551600293821615610100026000190190911692909204601f81018790048702830187019095528482529194929390928301828280156106d05780601f106106a5576101008083540402835291602001916106d0565b820191906000526020600020905b8154815290600101906020018083116106b357829003601f168201915b50505060028085018054604080516020601f60001961010060018716150201909416959095049283018590048502810185019091528181529596959450909250908301828280156107625780601f1061073757610100808354040283529160200191610762565b820191906000526020600020905b81548152906001019060200180831161074557829003601f168201915b505050506003830154600484015460058501546006909501549394919390925060ff81169061010090046001600160a01b031688565b600160208181526000928352604092839020805481840180548651600296821615610100026000190190911695909504601f810185900485028601850190965285855290949193929091908301828280156108345780601f1061080957610100808354040283529160200191610834565b820191906000526020600020905b81548152906001019060200180831161081757829003601f168201915b50505060028085018054604080516020601f60001961010060018716150201909416959095049283018590048502810185019091528181529596959450909250908301828280156108c65780601f1061089b576101008083540402835291602001916108c6565b820191906000526020600020905b8154815290600101906020018083116108a957829003601f168201915b5050505060038301805460408051602060026001851615610100026000190190941693909304601f81018490048402820184019092528181529495949350908301828280156109565780601f1061092b57610100808354040283529160200191610956565b820191906000526020600020905b81548152906001019060200180831161093957829003601f168201915b5050505050908060040154908060050154905086565b600081815260026020526040902054819060ff166109ca576040805162461bcd60e51b815260206004820152601660248201527510da5d1a5e995b881b9bdd081c9959da5cdd195c995960521b604482015290519081900360640190fd5b6004805460019081019182905560008281526020829052604090209182556109f59082018a8a611186565b50610a04600282018888611186565b50610a13600382018686611186565b504281600401819055506004547f16feb37c8d0f7380bfaf9320d89fba75752c1974338b8ab9ff7e15f89aecb48d8a8a60405180806020018281038252848482818152602001925080828437600083820152604051601f909101601f19169092018290039550909350505050a2505050505050505050565b600380546001908101918290556000828152602081905260409020918255610ab69082018787611186565b50610ac5600282018585611186565b504282016005820155600681018054600160ff1990911617610100600160a81b031916610100330217905560035460408051602080825281018890527f9c770c289ab5bf7e57cb1d23c8ceae993aea46eb64847072fd3d78ca60d3e432918991899181908101848480828437600083820152604051601f909101601f19169092018290039550909350505050a2505050505050565b600081815260026020526040902054819060ff16610bb8576040805162461bcd60e51b815260206004820152601660248201527510da5d1a5e995b881b9bdd081c9959da5cdd195c995960521b604482015290519081900360640190fd5b6000838152600160205260409020600581015415610c075760405162461bcd60e51b81526004018080602001828103825260248152602001806112bf6024913960400191505060405180910390fd5b6040805180820190915260078082526619195b195d195960ca1b6020909201918252610c37916001840191611204565b5060408051808201909152601d8082527f5b5468697320697373756520686173206265656e2064656c657465645d0000006020909201918252610c7e916002840191611204565b50604080518082019091526009808252685b44454c455445445d60b81b6020909201918252610cb1916003840191611204565b5060405184907f556607b59130ed4b4db63603c95f851b841308a24a1298e839d4fd0e01e6126e90600090a250505050565b60026020526000908152604090205460ff1681565b6000818152602081905260409020600681015461010090046001600160a01b03163314610d6c576040805162461bcd60e51b815260206004820152601760248201527f4f6e6c792063726561746f722063616e2064656c657465000000000000000000604482015290519081900360640190fd5b6003810154158015610d8057506004810154155b610dbb5760405162461bcd60e51b81526004018080602001828103825260228152602001806112e36022913960400191505060405180910390fd5b60068101805460ff19169055604080518082019091526009808252685b44454c455445445d60b81b6020909201918252610df9916001840191611204565b506040518060600160405280602f8152602001611290602f91398051610e29916002840191602090910190611204565b5060405182907f61c0d93dc2b610877e420b107c8d12e9185e46e04a505da758cc7f7329ae545f90600090a25050565b60045481565b6000908152600260205260409020805460ff19166001179055565b600081815260026020526040902054819060ff16610ed8576040805162461bcd60e51b815260206004820152601660248201527510da5d1a5e995b881b9bdd081c9959da5cdd195c995960521b604482015290519081900360640190fd5b6000838152600160209081526040808320858452600681019092529091205460ff1615610f3e576040805162461bcd60e51b815260206004820152600f60248201526e105b1c9958591e481d5c1d9bdd1959608a1b604482015290519081900360640190fd5b6000928352600681016020526040909220805460ff19166001908117909155600590920180549092019091555050565b60035481565b600081815260026020526040902054819060ff16610fd2576040805162461bcd60e51b815260206004820152601660248201527510da5d1a5e995b881b9bdd081c9959da5cdd195c995960521b604482015290519081900360640190fd5b6000848152602081905260409020600681015460ff1661102f576040805162461bcd60e51b815260206004820152601360248201527250726f706f73616c206e6f742061637469766560681b604482015290519081900360640190fd5b80600501544210611076576040805162461bcd60e51b815260206004820152600c60248201526b159bdd1a5b99c8195b99195960a21b604482015290519081900360640190fd5b600083815260078201602052604090205460ff16156110cc576040805162461bcd60e51b815260206004820152600d60248201526c105b1c9958591e481d9bdd1959609a1b604482015290519081900360640190fd5b60008381526007820160205260409020805460ff1916600117905583156110fd576003810180546001019055611109565b60048101805460010190555b604080518515158152905186917fa569f04ac50c7dc602af46da32d6b4bb55adafc0bc482968f959264ea5edde96919081900360200190a2606481600401548260030154011061117f5760405185907fd17dd4913e5c8ba91a92f629fb8a60291dd70af4c9462928dafe5daa6e64002690600090a25b5050505050565b828054600181600116156101000203166002900490600052602060002090601f016020900481019282601f106111c75782800160ff198235161785556111f4565b828001600101855582156111f4579182015b828111156111f45782358255916020019190600101906111d9565b50611200929150611272565b5090565b828054600181600116156101000203166002900490600052602060002090601f016020900481019282601f1061124557805160ff19168380011785556111f4565b828001600101855582156111f4579182015b828111156111f4578251825591602001919060010190611257565b61128c91905b808211156112005760008155600101611278565b9056fe5b546869732070726f706f73616c20686173206265656e2064656c65746564206279207468652063726561746f725d43616e6e6f742064656c657465206166746572207570766f74657320726563656976656443616e6e6f742064656c65746520616674657220766f74696e672073746172746564a265627a7a723158204016a3b9d63ebb0829f1629d756ba504fe14082adec8a2b8433470466b09b9a164736f6c63430005100032",
  "source": "pragma solidity ^0.5.0;\n\ncontract Civics {\n\n    struct Proposal {\n        uint256 id;\n        string title;\n        string description;\n        uint256 yesVotes;\n        uint256 noVotes;\n        uint256 deadline;\n        bool active; \n        address creator;\n        mapping(bytes32 => bool) hasVoted;\n    }\n    struct Issue{\n        uint256 id;\n        string category;\n        string description; \n        string location;\n        uint256 timestamp;\n        uint256 upvotes;\n        mapping(bytes32 => bool) hasUpvoted;\n    }\n    mapping(uint256 => Proposal) public proposals;\n    mapping(uint256 => Issue) public issues;\n    mapping(bytes32 => bool) public registeredCitizens;\n\n    uint256 public proposalCount;\n    uint256 public issueCount;\n    uint256 constant ESCALATION_THRESHOLD=100;\n\n    event ProposalCreated(uint256 indexed id, string title);\n    event VoteCast(uint256 indexed proposalId, bool vote);\n    event IssueReported(uint256 indexed id, string category);\n    event ProposalEscalated(uint256 indexed id);\n\n    modifier onlyRegistered(bytes32 citizenHash) {\n        require(registeredCitizens[citizenHash], \"Citizen not registered\");\n        _;\n    }\n    function registerCitizen(bytes32 citizenHash) external {\n        registeredCitizens[citizenHash] = true;\n    }\n\n    function createProposal(\n        string calldata _title,\n        string calldata _description,\n        uint256 _duration\n    ) external {\n        proposalCount++;\n        Proposal storage newProposal = proposals[proposalCount];\n        newProposal.id = proposalCount;\n        newProposal.title = _title;\n        newProposal.description = _description;\n        newProposal.deadline = block.timestamp + _duration;\n        newProposal.active = true;\n        newProposal.creator = msg.sender;\n        \n        emit ProposalCreated(proposalCount, _title);\n    }\n\n    function vote(\n        uint256 _proposalId,\n        bool _vote,\n        bytes32 _citizenHash\n    ) external onlyRegistered(_citizenHash) {\n        Proposal storage proposal = proposals[_proposalId];\n        require(proposal.active, \"Proposal not active\");\n        require(block.timestamp < proposal.deadline, \"Voting ended\");\n        require(!proposal.hasVoted[_citizenHash], \"Already voted\");\n        \n        proposal.hasVoted[_citizenHash] = true;\n        \n        if (_vote) {\n            proposal.yesVotes++;\n        } else {\n            proposal.noVotes++;\n        }\n        \n        emit VoteCast(_proposalId, _vote);\n        \n        // Check for escalation\n        if (proposal.yesVotes + proposal.noVotes >= ESCALATION_THRESHOLD) {\n            emit ProposalEscalated(_proposalId);\n        }\n    }\n\n    function reportIssue(\n        string calldata _category,\n        string calldata _description,\n        string calldata _location,\n        bytes32 _citizenHash\n    ) external onlyRegistered(_citizenHash) {\n        issueCount++;\n        Issue storage newIssue = issues[issueCount];\n        newIssue.id = issueCount;\n        newIssue.category = _category;\n        newIssue.description = _description;\n        newIssue.location = _location;\n        newIssue.timestamp = block.timestamp;\n        \n        emit IssueReported(issueCount, _category);\n    }\n\n    function upvoteIssue(\n        uint256 _issueId,\n        bytes32 _citizenHash\n    ) external onlyRegistered(_citizenHash) {\n        Issue storage issue = issues[_issueId];\n        require(!issue.hasUpvoted[_citizenHash], \"Already upvoted\");\n        \n        issue.hasUpvoted[_citizenHash] = true;\n        issue.upvotes++;\n    }\n\n    \n    function deleteProposal(uint256 _proposalId) external {\n        Proposal storage proposal = proposals[_proposalId];\n        require(proposal.creator == msg.sender, \"Only creator can delete\");\n        require(proposal.yesVotes == 0 && proposal.noVotes == 0, \"Cannot delete after voting started\");\n        \n        proposal.active = false;\n        proposal.title = \"[DELETED]\";\n        proposal.description = \"[This proposal has been deleted by the creator]\";\n        \n        emit ProposalDeleted(_proposalId);\n    }\n    \n    function deleteIssue(uint256 _issueId, bytes32 _citizenHash) external onlyRegistered(_citizenHash) {\n        Issue storage issue = issues[_issueId];\n        require(issue.upvotes == 0, \"Cannot delete after upvotes received\");\n        \n        issue.category = \"deleted\";\n        issue.description = \"[This issue has been deleted]\";\n        issue.location = \"[DELETED]\";\n        \n        emit IssueDeleted(_issueId);\n    }\n    \n    // Additional events\n    event ProposalDeleted(uint256 indexed proposalId);\n    event IssueDeleted(uint256 indexed issueId);\n     \n}",
  "sourcePath": "/Users/saganac/eth-civics/contracts/Civics.sol",
  "compiler": {
    "name": "solc",
    "version": "0.5.16+commit.9c3226ce.Emscripten.clang"
  },
  "schemaVersion": "3.4.16",
  "updatedAt": "2025-09-07T20:29:07.441Z",
  "networkType": "ethereum",
  "devdoc": {
    "methods": {}
  },
  "userdoc": {
    "methods": {}
  }
}